{
  "contractName": "GuessGame",
  "abi": [
    {
      "anonymous": false,
      "inputs": [
        {
          "indexed": false,
          "name": "playerChoice",
          "type": "uint256"
        },
        {
          "indexed": false,
          "name": "computerChoice",
          "type": "uint256"
        },
        {
          "indexed": false,
          "name": "result",
          "type": "uint256"
        }
      ],
      "name": "GuessResult",
      "type": "event"
    },
    {
      "constant": false,
      "inputs": [
        {
          "name": "playerChoice",
          "type": "uint256"
        },
        {
          "name": "computerChoice",
          "type": "uint256"
        }
      ],
      "name": "play",
      "outputs": [
        {
          "name": "",
          "type": "bool"
        }
      ],
      "payable": false,
      "stateMutability": "nonpayable",
      "type": "function"
    }
  ],
  "bytecode": "0x608060405234801561001057600080fd5b50610208806100206000396000f300608060405260043610610041576000357c0100000000000000000000000000000000000000000000000000000000900463ffffffff1680637bc49a9514610046575b600080fd5b34801561005257600080fd5b5061007b6004803603810190808035906020019092919080359060200190929190505050610095565b604051808215151515815260200191505060405180910390f35b600080831180156100a7575060038311155b80156100b35750600082115b80156100c0575060038211155b156101d1578183141561011a577fa70bef6827988aad0390a3cec93a1e34f5b83b132ad302b0a0afc8d1a16a7d0b8383600160405180848152602001838152602001828152602001935050505060405180910390a16101c8565b60036001830181151561012957fe5b0683141561017e577fa70bef6827988aad0390a3cec93a1e34f5b83b132ad302b0a0afc8d1a16a7d0b8383600260405180848152602001838152602001828152602001935050505060405180910390a16101c7565b7fa70bef6827988aad0390a3cec93a1e34f5b83b132ad302b0a0afc8d1a16a7d0b8383600360405180848152602001838152602001828152602001935050505060405180910390a15b5b600190506101d6565b600090505b929150505600a165627a7a7230582021f3a1c0c8cfafe5d96fe2735269a77dcbbb754553f7b2b597242a4542c87ff20029",
  "source": "pragma solidity ^0.4.16;\n\ncontract GuessGame {\n\n    // 定义一个事件，用来接收游戏结果\n    event GuessResult(uint playerChoice, uint computerChoice, uint result);\n\n    // 处理两个猜拳选项\n    // 值得注意的是，在web3.js中调用play函数无法获取直接获取返回值，\n    // 智能合约执行需要消耗以太币，产生交易，故web3.js得到的返回结果是产生交易的hash值\n    // web3.js要获取猜拳结果需要通过监听GuessResult事件\n    function play(uint playerChoice, uint computerChoice) public returns (bool) {\n        // 石头、剪刀和布均用数字表示\n        // 其中1表示\n        if (playerChoice > 0 && playerChoice <= 3 && computerChoice > 0 && computerChoice <= 3) {\n            // 如果两者相同，则代表平手\n            if (playerChoice == computerChoice) {\n                emit GuessResult(playerChoice, computerChoice, 1);   // 选项相同 代表平手\n            } else if (playerChoice == (computerChoice + 1) % 3) {\n                emit GuessResult(playerChoice, computerChoice, 2);  // 这里代表电脑赢了\n            } else {\n                emit GuessResult(playerChoice, computerChoice, 3);  // 其他情况代表玩家赢了\n            }\n            return true; //执行成功返回true\n        } else {\n            return false;  // 执行错误返回false\n        }\n    }\n}",
  "sourcePath": "/Users/lingjiefan/workspace/blockchain/第五章/guess-game/contracts/GuessGame.sol",
  "compiler": {
    "name": "solc",
    "version": "0.4.24+commit.e67f0147.Emscripten.clang"
  },
  "schemaVersion": "2.0.1",
  "updatedAt": "2018-10-04T16:13:29.180Z"
}